:020000040800F2
:10000000002000100D09030861BB010835640008D9
:100010005DBB010859BB010855BB01080000000089
:1000200000000000000000000000000051BB0108BB
:100030004DBB01080000000049BB0108597A0008C7
:10004000750903087509030875090308750903088C
:100050007509030875090308FD1F00082921000818
:10006000ED200008B1200008752000083134000898
:10007000213400081134000801340008F13300086D
:10008000DD330008C9330008750903087509030842
:100090006DBD0108750903087509030839200008BA
:1000A000296B0008796B000875090308A16B00082B
:1000B000696B0008596B0008750903087509030886
:1000C000750903087509030875090308750903080C
:1000D00075090308E9320008DD320008D132000852
:1000E000C11F00087509030839BB01087509030819
:1000F000396B000875090308496B00087509030886
:100100000000000000000000000000007509030866
:1001100075090308750903087509030875090308BB
:10012000B5330008A13300088D3300087933000887
:100130006533000875090308000000000000000096
:100140007509030875090308750903080000000014
:10015000000000000000000000000000000000009F
:10016000000000000000000075090308750903087D
:1001700075090308000000000000000000000000F6
:080180000000000075090308EE
:1001900003682DE9F041DF691FB13B46BDE8F0413E
:1001A0001847002A164611DD04460D460E4400E0AD
:1001B00023689B68204698470028F9D0236815F8E3
:1001C000011B1B6820469847AE42F1D1BDE8F08183
:1001D000F0B484894FF6FF764FF47A745BB3002A4B
:1001E0003BD01778013201E0B44219D00589013CB7
:1001F00015F00205A4B2F7D007734FF47A7402E049
:10020000BCB2B4420CD0058915F0010504F1FF37EA
:10021000F6D0057BEDB209B10D700131013BDDE790
:10022000104B98420BD0A3F57843984217D003F5B2
:100230008063984202D00120F0BC704702250A4B2F
:1002400003EB05156B8901339BB26B81688980B222
:10025000003018BF0120F0BC7047FF27C6E701251A
:10026000EDE700BF00300140BC1A002040F2E93346
:1002700000E09BB10289013B12F0020F9BB2F8D063
:10028000017340F2E93300E043B10289013B12F00F
:10029000010F9BB2F8D0007BC0B270470C4A90426D
:1002A00009D00C4B984210D003F58063984201D0DE
:1002B000FF2070470223084A02EB03135A890132D8
:1002C00092B25A815889C0B270470123F3E700BF48
:1002D0000030014000380040BC1A0020002870B5F2
:1002E0001EDB0928044620DD012303EB83035B00AA
:1002F000B0FBF3F2092AF8D87BB10E4EB4FBF3F051
:100300000928CCBF57223022A6FB03E5024403FB99
:100310001044EB0801F8012BF0D100230B7070BDE5
:100320002D230B7040420131DBE7303001F8010B27
:10033000F3E700BFCDCCCCCC884230B44FF0010401
:100340002ED301FB04F4B0FBF4F58D42F9D284B155
:10035000AAB901E0B0FBF4F5092DCCBF5722302239
:100360002A4404FB150003F8012BB4FBF1F4002C24
:10037000F0D100221A7030BC7047B0FBF4F5092DA3
:10038000CCBF372230222A4404FB150003F8012B8E
:10039000B4FBF1F4002CF0D100221A7030BC70478D
:1003A0000546002AEBD1D7E703685A1C0260197092
:1003B000704700BF2DE9F047089C2578002B804648
:1003C00089460CBF4FF0200A4FF0300A661C35B347
:1003D000002A29DD334601E0024698B113F8011BDB
:1003E000501E0029F8D1971E60B13D46013D51468F
:1003F0004046C8476B1C002BF8DC257827EAE770DD
:10040000013055B1041B29464046C847301916F83B
:10041000015B002DF7D1BDE8F087BDE8F087002A29
:1004200004DC2846BDE8F0870020EBE7571EDCE738
:100430000A44914251D030B441F2210411F8013BF9
:1004400080EA0320430010F4004F84EA03059BB2C6
:10045000ADB208BF1D466B0015F4004F84EA0300DF
:100460009BB280B208BF1846430010F4004F84EAE4
:1004700003059BB2ADB208BF1D466B0015F4004FDB
:1004800084EA03009BB280B208BF1846430010F410
:10049000004F84EA03059BB2ADB208BF1D466B0056
:1004A00015F4004F84EA03009BB280B208BF1846DF
:1004B000430010F4004F84EA03059BB2ADB208BFBD
:1004C0001D466B0084EA030015F4004F85B298B214
:1004D00018BF28468A42B1D130BC70478368426851
:1004E000D0ED037A00EB83010133934281ED040ADE
:1004F000836004BF0023836000EB830393ED047AE1
:10050000036870EE277A9A42C0ED037A77EEC77AD5
:10051000C0ED037A0CDA013307EE103AF8EEC76A41
:10052000B7EE007A87EEA60A036030EE070A70473E
:1005300007EE102AB8EEC77A87EE870A704700BF29
:1005400090ED057A90ED004AD0ED066AD0ED014AB3
:10055000D0ED047A90ED035AD0ED025AA4EE007A61
:10056000B0EE406AB0EE470AB0EE667AA6EE247AA4
:1005700067EEC07AA0EE457AE6EE257A80ED057A40
:10058000C0ED067A704700BFD0ED007A90ED017A99
:1005900030EE670AE7EE007AB0EE670AC0ED007A47
:1005A000704700BF704700BF2DE9F04FDFF81CB265
:1005B000DFF81CE2BBF80020DEF80060BBF9043075
:1005C000BBF90250BBF90A80C2EB261404FB04F409
:1005D00024135200C2EBE60203FB04F305FB02F214
:1005E0009B1303EBE223B3F5FA364FEAE37589B0C8
:1005F00045F1FF373246A6FB0645CDE9024502FB31
:1006000007F205EB4202CDE90467029EBBF9084000
:10061000039208FB02FC4FEAE87906FB09CC3A4654
:10062000A8FB0689049ECBF81830E51704FB02F2FC
:1006300006FB0522A4FB0667E14417444FEA182293
:1006400042EA096200924FEA292201923D03DDE964
:100650000078340345EA16553F19BBF8066006904A
:1006600048EB05083C1C48F5004503EB8302A4FB5E
:10067000068906FB0599803213124FEA69064FEA94
:10068000E977079356EA07038A4600F09280DDE98E
:100690000489BBF90E20DEF80440BBF9100049467E
:1006A000C4F5801ED317DDE9024502FB01F108FB0A
:1006B0000311A2FB08230B444FEA43492B46C11701
:1006C00000FB03F304FB0133A0FB0401BBF90C4066
:1006D0001944E30001937346DC170023009349EAB1
:1006E000D2394FEA4248DDE9002310EB080041EB24
:1006F0000901E50712184FEACE744B4145EA5E0541
:10070000A41A65EB0305221945EB050312196B4189
:1007100099019001801841EA926159418B00820051
:1007200043EA9073101943EB05018B00820043EA02
:10073000907310460019194632463B4669412FF026
:1007400011FFBBF916204C13450B45EAC14502FBCE
:1007500004F6D31705FB0366A2FB05233344BBF95C
:10076000146002FB04F405FB034406FB01FEA2FB3C
:100770000523F717234400FB07EE540EA6FB006782
:10078000774444EAC3144FEAD64800194FEA636538
:1007900048EA473869414FEAE74918EB0008BBF9D6
:1007A000124049EB01094FEA182646EA0966200182
:1007B0003618069B0BB1360A1E60BAF1000F02D044
:1007C000079BCAF8003009B0BDE8F08F88330020DD
:1007D00048210020704700BF704700BF4FF40063FE
:1007E000838170474FF400638381704750F8043C65
:1007F000012280F82F20143803B11847704700BF3A
:1008000090F8433013B1002280F843201846704717
:1008100070B5044682B01830A56C94F85C106B4635
:100820000622A847A8B19DF804009DF800609DF835
:1008300001109DF802509DF803209DF8053041EA13
:10084000062143EA002342EA052221846284A3842C
:10085000012002B070BD00BF70B5044682B0083000
:10086000E5696B4606223B21A847A8B19DF8040024
:100870009DF800609DF801109DF802509DF803203E
:100880009DF8053041EA062143EA002342EA0522A9
:10089000E18122826382012002B070BD036D026B90
:1008A00070B50446DD69C2B1636B2BB12B0702D56D
:1008B000236D08221A6270BD2A06F7D5A26A616A02
:1008C0008A421FD0511CA069A162825C2069266DFA
:1008D00081423285EAD3A362E8E7A906E4D5C26A79
:1008E0001AB1988C80B29047DEE7C1699B8C406951
:1008F000DBB24E1CE6614354E169E368994228BFCC
:10090000E261D1E7226D136823F080031360CDE725
:1009100070B40468037B2268022101FA03F31A42CF
:1009200013D042690A49582000FB02124FF6FE76A6
:1009300050685289C5680068296831402960C168DB
:10094000D24392B20A40C260636070BC704700BF7D
:10095000883D00200A4B1B788BB130B4094B1C78C2
:1009600064B1094B002503EBC4041A6899885562E9
:10097000D06808330143A342D160F6D130BC704740
:10098000EC410020A8410020AC4100201B4B70B47A
:100990001C788CB31A4E582505FB00656C685CB357
:1009A000E4684CB32B7B43EA41039AB2131283EA07
:1009B000121300EB8001534000EB4100C00003F034
:1009C0000F0343EA0213002100F10C024C309BB2EA
:1009D00032443044297313F4004F14BF0E21072111
:1009E00042F8041F5B0082429BB2F4D11223636081
:1009F000236843F00103236070BC7047EC41002082
:100A0000883D002010B40268047B11680223A340D3
:100A1000194209D00649406800240C7001684FF65D
:100A2000FE742140016053605DF8044B704700BFC5
:100A300068870020F0B5064683B00D4600240127E4
:100A400014E003290CBF03220122C3F3011E6946EF
:100A5000C3F3810330468DF805208DF806E08DF84C
:100A6000073026F033FB0134102C0FD02B8807FA07
:100A700004F21342F7D0AB78E9780092022903F030
:100A800003028DF80420DCD10A46DEE703B0F0BD96
:100A9000F0B5046D41712368866823F0010323607B
:100AA000827912F0040395B0054678D012F0020F57
:100AB00014BF4FF4005000204FF4A05E276827F0C9
:100AC00001072760676827F4405738436060236850
:100AD00001F00102002A23F4B0530BBF08220C22BC
:100AE0000020042023F00C0311F0020F08BF02467F
:100AF00043EA0E0313432360A36823F44073A36007
:100B0000684626F0EFF82E4B9C424FD02D4B9C426E
:100B10004ED02D4B9C424DD02C4B9C420CBF0F9A7B
:100B2000109A23681F0448BF5200B2FBF6F306FB7D
:100B30001322B2EB560F226828BF0133160405D5E5
:100B40004FF6F0721A40C3F3420313439BB2A381E2
:100B500068792B6DA97900F00202002A15BF4FF4C5
:100B600040324FF480324FF40034002410F0010F73
:100B7000586808BF2246CC074CBF024320EA020255
:100B80005A609A6809074CBF42F0080222F0080236
:100B90009A601A6842F001021A6015B0F0BD12F0B6
:100BA000020209D09E464FF4005087E70C9AB8E73E
:100BB0000D9AB6E70E9AB4E7964610467EE700BF58
:100BC000003801400044004000480040004C004014
:100BD000F0B5046D8160236823F0010323608279FE
:100BE00012F0040395B005460E4679D012F0020FBC
:100BF00014BF4FF4005100214FF4A057206895F81E
:100C000005E020F001002060606820F440500143BE
:100C1000616023680EF00102002A23F4B0530BBF79
:100C200008220C220021042123F00C031EF0020FE5
:100C300008BF0A463B4313432360A36823F4407371
:100C4000A360684626F04EF82D4B9C424FD02D4BAA
:100C50009C424ED02C4B9C424DD02C4B9C420CBF06
:100C60000F9A109A23681F0448BF5200B2FBF6F394
:100C700006FB1322B2EB560F226828BF013316047D
:100C800005D54FF6F0721A40C3F3420313439BB2EB
:100C9000A38168792B6DA97900F00202002A15BFA3
:100CA0004FF440324FF480324FF40034002410F0FF
:100CB000010F586808BF2246CC074CBF024320EA08
:100CC00002025A609A6809074CBF42F0080222F0FB
:100CD00008029A601A6842F001021A6015B0F0BD6D
:100CE00012F0020209D01F464FF4005186E70C9A19
:100CF000B8E70D9AB6E70E9AB4E7174611467DE7B6
:100D0000003801400044004000480040004C0040D2
:100D10002DE9F341056906460F467DBBD0F80080FA
:100D2000C8F30A0323B30023D6F80080019317F019
:100D3000CBFF042819D1224C236943F0010323611E
:100D4000BBB2A8F8003017F0BFFF04282ED108F17D
:100D500002030193019B3F0C1F8017F0B5FF23692D
:100D6000042823F00103236125D06FF0010505E07D
:100D700017F0AAFF042805D04FF0FF35284602B02F
:100D8000BDE8F0810E4C236943F002032361C4F8EF
:100D90001480236943F04003236117F095FF236912
:100DA000042823F002032361BDD0E5E7236923F083
:100DB00001032361D9E7336804333360DEE700BF02
:100DC00000200240F8B504460D468E180027B542B3
:100DD00001D12069F8BDE368591CE160234415F88E
:100DE000012B1A720429F2D1A1682046FFF790FF67
:100DF000E7602061EBE700BF08B506F0E9FC044BB3
:100E00005B68C01AC0F5FA5020EAE07008BD00BF68
:100E1000D87D002000B5002083B027F049FF1420C2
:100E200006F07CFD0F2027F043FF0A2006F076FD38
:100E300001AA0321102027F057FF0A2006F06EFDBB
:100E40009DF90430DFED277ADFED275A06EE103AE0
:100E50009DF9053006EE903A9DF9063007EE103AFE
:100E6000B8EEC66AF8EEE66AB8EEC77A76EEE76ADA
:100E700036EE676A37EE677AF7EE007AB0EE675AB9
:100E8000A6EE255A194B0020B0EE456AB0EE675A1F
:100E9000A6EEA55AE7EE257AF3EE0E5A26EE256A5F
:100EA00025EE257A67EEA57A83ED006A83ED017A57
:100EB000C3ED027A27F0FCFE0A2006F02FFD0DF1AB
:100EC00003020121022027F00FFF0DF1030201218F
:100ED000092027F009FF022027F0EAFE012003B0D5
:100EE0005DF804FB000000430000803B0000002090
:100EF00070B582B06B460622F721762027F078FB8A
:100F00009DF801209DF804309DF800609DF8035085
:100F10009DF802409DF80500074912011B0142EAB5
:100F2000063243EA053342EA141243EA10134A60D8
:100F30000B6002B070BD00BF48210020682027F080
:100F400057BB00BF3122F421762027F0E9BA00BF59
:100F5000682027F0E5BA00BF03685B6A03B1184751
:100F6000704700BF03681B6A03B11847704700BF92
:100F700003682DE9F041DF691FB13B46BDE8F04150
:100F80001847002A164611DD04460D460E4400E0BF
:100F900023689B68204698470028F9D0236815F8F5
:100FA000011B1B6820469847AE42F1D1BDE8F08195
:100FB00003689B69184700BF03685B69184700BF57
:100FC00003681B69184700BF0368DB68184700BF48
:100FD00003689B68184700BF03685B68184700BF39
:100FE00003681B68184700BF014B1868F8E700BF8B
:100FF000F491002038B50C46097849B10546013412
:101000002B6828461B68984714F8011B0029F7D164
:1010100038BD00BF10B50409013C052C17DC0D4B91
:1010200033F8142000F00F0042FA00F313F001032C
:101030000DD0012303FA00F0013810402FF0E2FA3E
:10104000054A064B125D104403EBC00010BD0020A2
:1010500010BD00BF8C6403087C640308DC820020A0
:101060002DE9F047B04C96B0A0429DF878608A46D2
:1010700090461F4600F02981AC4B984200F06681F3
:10108000AB4B984203D0002016B0BDE8F087A94AC8
:10109000A94CD369A94DC4F8B88043F48023D36127
:1010A00004F2045104F204624FF48073C4F80001A6
:1010B0002A20C4F8C410C4F8C820C4F8BC30C4F84E
:1010C000C030C4F8B050FFF7A5FF05462B20FFF74E
:1010D000A1FF032301460093284633463A460DF10B
:1010E000580927F0CFFB964B49F8503D484627F06A
:1010F000FDFAB034256D6771A6712A68C4F82CA07A
:1011000000232362E361A362636222F001020121F2
:1011100016F00403C4F8088084F844102A6000F034
:10112000CA8016F0020F14BF4FF4005000204FF495
:10113000A0512B6823F001032B606A6822F440520F
:1011400002436A602B6807F00106002E23F4B053B7
:101150000BBF0022042208200C2023F00C0317F000
:10116000020718BF02460B4313432B60AB6823F4FE
:101170004073AB60484625F0B5FD6B4B9D4200F0D7
:10118000A2806A4B9D4200F01081694B9D4200F0A5
:101190000E816C4B9D420CBF119B129B2A6812045E
:1011A00048BF5B00B3FBF8F108FB1133B3EB580FFA
:1011B0002B6828BF01311B0405D54FF6F0730B4097
:1011C000C1F34201194389B2A9816079216DA279E5
:1011D00000F00203002B15BF4FF440334FF480336F
:1011E0004FF40035002510F0010F486808BF2B466A
:1011F000D5074CBF034320EA03034B608B681207FB
:101200004CBF43F0080323F008038B600B6843F0E6
:1012100001030B601EB3206B002800F0CF80D4F8D0
:101220004C80E568666920F08FFE236B216D1A689B
:1012300022F4FF4222F0700242F48552ADB21A60ED
:101240005D60C3F80880DE601A6842F001021A602F
:101250008A6842F040028A605B689BB2236417B3DD
:10126000606B002800F0A580A66C256920F06CFE5C
:10127000636B216D1A6822F4FF4222F0700242F47F
:101280008452002042F01002ADB21A605D609E6090
:10129000D8601A6842F002021A60586058608B6881
:1012A00043F080038B600B68204643F001030B6022
:1012B00016B0BDE8F08716F0020600F086801946E9
:1012C0004FF4005035E70E9B68E71A4A1A4C9369B1
:1012D0001A4DC4F8108043F48043936104F5827181
:1012E00004F501724FF48073A0651920E161226258
:1012F0006361A361A560FFF78DFE05461A20FFF725
:1013000089FE012301460093284633460DF1580912
:101310003A4627F0B7FA0C4B49F8503D4846083496
:1013200027F0E4F9E6E600BF003801400044004041
:10133000004800400010024048210020A04003085F
:1013400027010001004C004025010001204A214CEA
:10135000D369214DC4F8648043F40033D36104F5AC
:10136000417104F204424FF48073C4F8AC001E20B3
:1013700021676267A366E366E565FFF74BFE0546F6
:101380001F20FFF747FE02230146009328463346FD
:101390000DF158093A4627F075FA104B49F8503DBF
:1013A00048465C3427F0A2F9A4E60F9BF6E6109BB2
:1013B000F4E60B6843F080030B6074E720230B62B4
:1013C0000B6843F020030B6049E731463046B0E636
:1013D0000010024048210020A0400308260100011F
:1013E0002DE9F04F4A484B4B4B4C4FF090414FF09A
:1013F000010A4FF002094FF004084FF0080C4FF0BB
:10140000100E20274026802530F8022B12F0010F05
:1014100003D01960A3F804A0083312F0020F03D020
:101420001960A3F80490083312F0040F03D0196078
:10143000A3F80480083312F0080F03D01960A3F852
:1014400004C0083312F0100F03D01960A3F804E0B1
:10145000083312F0200F02D019609F80083312F079
:10146000400F02D019609E80083312F0800F02D026
:1014700019609D80083312F4807F05D04FF4807B83
:101480001960A3F804B0083312F4007F05D04FF4BC
:10149000007B1960A3F804B0083312F4806F05D004
:1014A0004FF4806B1960A3F804B0083312F4006F96
:1014B00005D04FF4006B1960A3F804B0083312F4A0
:1014C000805F05D04FF4805B1960A3F804B0083347
:1014D00012F4005F05D04FF4005B1960A3F804B06C
:1014E000083312F4804F05D04FF4804B1960A3F8F5
:1014F00004B00833D20B04D04FF4004219609A8034
:10150000083301F58061A1427FF47EAFBDE8F08F22
:101510008C640308DC82002000180048002867D093
:1015200003682DE9F04F03F138445C4EA40A01250D
:10153000345D04F01F066409022C05FA06F558D044
:10154000032C00F0A580012C58D08088B0FA80F4DC
:10155000C4F11F04A4B2E50803EB850504F00704F9
:101560002E6AA4000F27A74026EA07062E622E6ADD
:1015700001F00307A2407C1E3243012CC1F3810C11
:10158000C1F300182A62C1F341113CD9C60700F12A
:101590008980850700F19580440700F1A380020748
:1015A00000F1B180C60600F1BF80850600F1CD8054
:1015B000440600F1DB80020600F1E980C60500F177
:1015C000F780850500F10581440500F113810205CE
:1015D00000F12181C60400F12F81850400F13D81D5
:1015E000440400F14B81020400F15981BDE8F08F01
:1015F00070472B4CA6693543A561A6E7284C666960
:1016000035436561A1E7002422464FF0010E4FF0FB
:10161000030904E00132102A04F10204E6D00EFAB4
:1016200002F636EA0005F5D1D3F808A009FA04F568
:10163000ED430AEA050AC3F808A0D3F808B00CFA8B
:1016400004FA4AEA0B0AC3F808A0B3F804A01FFA88
:101650008AFA2AEA06069E80B3F804A008FA02F67F
:1016600046EA0A06B6B29E801E682E401E60D3F877
:1016700000A007FA04F646EA0A061E60D3F80CA09A
:1016800001FA04F605EA0A0A46EA0A05DD60C1E73E
:10169000034CE6693543E56157E700BF84640308FE
:1016A000001002401A6822F003021A601A683A43D6
:1016B0001A60DA6822F003020A438507DA607FF5D0
:1016C0006BAF1A6822F00C021A601A6842EA8702AD
:1016D0001A60DA6822F00C0242EA81024407DA60FA
:1016E0007FF55DAF1A6822F030021A601A6842EA8C
:1016F00007121A60DA6822F0300242EA0112DA6058
:1017000002077FF54FAF1A6822F0C0021A601A680C
:1017100042EA87121A60DA6822F0C00242EA8112B5
:10172000C606DA607FF541AF1A6822F440721A608B
:101730001A6842EA07221A60DA6822F4407242EA22
:1017400001228506DA607FF533AF1A6822F4406221
:101750001A601A6842EA87221A60DA6822F4406244
:1017600042EA81224406DA607FF525AF1A6822F446
:1017700040521A601A6842EA07321A60DA6822F4A4
:10178000405242EA0132DA6002067FF517AF1A686A
:1017900022F440421A601A6842EA87321A60DA6814
:1017A00022F4404242EA8132C605DA607FF509AF91
:1017B0001A6822F440321A601A6842EA07421A6034
:1017C000DA6822F4403242EA01428505DA607FF5A8
:1017D000FBAE1A6822F440221A601A6842EA874275
:1017E0001A60DA6822F4402242EA81424405DA6053
:1017F0007FF5EDAE1A6822F440121A601A6842EAC8
:1018000007521A60DA6822F4401242EA0152DA60A2
:1018100002057FF5DFAE1A6822F440021A601A68EA
:1018200042EA87521A60DA6822F4400242EA8152A0
:10183000C604DA607FF5D1AE1A6822F040721A60F1
:101840001A6842EA07621A60DA6822F0407242EAD5
:1018500001628504DA607FF5C3AE1A6822F0406247
:101860001A601A6842EA87621A60DA6822F04062F7
:1018700042EA81624404DA607FF5B5AE1A6822F06C
:1018800040521A601A6842EA07721A60DA6822F057
:10189000405242EA0172DA6002047FF5A7AE1A688C
:1018A00022F040421A601A6842EA87771F60DA68BD
:1018B00022F0404242EA8171D960BDE8F08F00BF5A
:1018C000002852D0036803F138422DE9F04F920A04
:1018D000504DAA5C02F01F0552090124022A04FAA5
:1018E00005F443D0032A00F09080012A43D001F090
:1018F00003077A1E012AC1F3810CC1F30018808806
:10190000C1F341113CD9C60700F18880850700F179
:101910009480440700F1A280020700F1B080C6065F
:1019200000F1BE80850600F1CC80440600F1DA802B
:10193000020600F1E880C60500F1F680850500F199
:101940000481440500F11281020500F12081C604E2
:1019500000F12E81850400F13C81440400F14A81AC
:10196000020400F15881BDE8F08F70472A4A95695A
:101970002C439461BBE7284A55692C435461B6E770
:10198000002422464FF0010E4FF0030904E001321B
:10199000102A04F10204E6D00EFA02F636EA000537
:1019A000F5D1D3F808A009FA04F5ED430AEA050ACF
:1019B000C3F808A0D3F808B00CFA04FA4AEA0B0AF4
:1019C000C3F808A0B3F804A01FFA8AFA2AEA0606A8
:1019D0009E80B3F804A008FA02F646EA0A06B6B2F8
:1019E0009E801E682E401E60D3F800A007FA04F601
:1019F00046EA0A061E60D3F80CA001FA04F605EACE
:101A00000A0A46EA0A05DD60C1E7034AD5692C43A4
:101A1000D4616CE784640308001002401A6822F065
:101A200003021A601A683A431A60DA6822F0030265
:101A30000A438507DA607FF56CAF1A6822F00C0262
:101A40001A601A6842EA87021A60DA6822F00C0209
:101A500042EA81024407DA607FF55EAF1A6822F03D
:101A600030021A601A6842EA07121A60DA6822F035
:101A7000300242EA0112DA6002077FF550AF1A68BD
:101A800022F0C0021A601A6842EA87121A60DA6805
:101A900022F0C00242EA8112C606DA607FF542AF48
:101AA0001A6822F440721A601A6842EA07221A6021
:101AB000DA6822F4407242EA01228506DA607FF594
:101AC00034AF1A6822F440621A601A6842EA872228
:101AD0001A60DA6822F4406242EA81224406DA603F
:101AE0007FF526AF1A6822F440521A601A6842EA5B
:101AF00007321A60DA6822F4405242EA0132DA60B0
:101B000002067FF518AF1A6822F440421A601A687C
:101B100042EA87321A60DA6822F4404242EA8132AD
:101B2000C605DA607FF50AAF1A6822F440321A60FF
:101B30001A6842EA07421A60DA6822F4403242EA3E
:101B400001428505DA607FF5FCAE1A6822F4402276
:101B50001A601A6842EA87421A60DA6822F4402260
:101B600042EA81424405DA607FF5EEAE1A6822F45B
:101B700040121A601A6842EA07521A60DA6822F4C0
:101B8000401242EA0152DA6002057FF5E0AE1A68BF
:101B900022F440021A601A6842EA87521A60DA6830
:101BA00022F4400242EA8152C604DA607FF5D2AEE6
:101BB0001A6822F040721A601A6842EA07621A60D4
:101BC000DA6822F0407242EA01628504DA607FF549
:101BD000C4AE1A6822F040621A601A6842EA87624C
:101BE0001A60DA6822F0406242EA81624404DA60F4
:101BF0007FF5B6AE1A6822F040521A601A6842EABF
:101C000007721A60DA6822F0405242EA0172DA6022
:101C100002047FF5A8AE1A6822F040421A601A68E2
:101C200042EA87771F60DA6822F0404242EA817117
:101C3000D960BDE8F08F00BF10B1036882881A85B3
:101C4000704700BF10B1036882889A61704700BF77
:101C5000F8B5044600680A4D17461E46FFF7ECFF2C
:101C6000284641F08001FEF701FB3B463146002249
:101C70002846FEF7ADFA2068FFF7E4FF0120F8BD23
:101C80000030014038B50B4C2378054653B90A4B58
:101C90006278186849212B4600252570FFF7D8FF88
:101CA000012038BDFFF7A8F80028F0D005F0DCFDD2
:101CB000EDE700BFD87D0020D47D0020F0B54B4C6F
:101CC00094F80457012D83B063D079D3022D5DD1F0
:101CD000474B1B780646002B7DD16846FFF7D2FFA5
:101CE000002853D09DF8063013F003034ED184F83A
:101CF00004379DF801E09DF800109DF803709DF8F1
:101D000002209DF805509DF804303A4C41EA0E211E
:101D100042EA072243EA052309B212B21BB2494242
:101D200052425B4206EE901A07EE102A07EE903AF6
:101D300094ED005AD4ED015A94ED026AF8EEE66A89
:101D4000B8EEC77AF8EEE77A66EE856A27EE257A6E
:101D500067EE867AFDEEE66ABDEEC77AFDEEE77ABB
:101D600016EE901A17EE102A17EE903A3180728014
:101D7000B38003B0F0BD33782BB90721032026F0E0
:101D8000D7FF94F80457013584F80457002003B0B6
:101D9000F0BD174E33781BBB6846FFF773FF9DF805
:101DA000003008B19B07E6D1002384F8043733786C
:101DB00053B100230133002084F8043703B0F0BD91
:101DC0000B4E3378002BF4D10121022026F0B0FF16
:101DD00094F80437EEE7FFF70FF80028D6D17CE738
:101DE000FFF70AF80028D7D0D0E700BF482100202D
:101DF000D87D00200000002070B5094D0446006821
:101E00001646FFF719FF2846FEF730FA31462846F6
:101E1000FEF72CFA2068FFF715FF012070BD00BF08
:101E20000030014030B1036882881B8A1A4214BF17
:101E300001200020704700BF38B5044690F84700E5
:101E400000285AD104F11805E36C80226B21284642
:101E50009847642005F062FDE36C0722682128465C
:101E60009847642005F05AFDE36C00226B21284658
:101E70009847642005F052FDE36C01226B2128464F
:101E800098470F2005F04AFD94F84120E36C032A9F
:101E900034BF18221A221B21284698470F2005F02C
:101EA0003DFDE36C18221C21284698470F2005F0C1
:101EB00035FDE36C94F840201A21284698470F20FE
:101EC00005F02CFDE36C94F8422019212846984730
:101ED000642005F023FDE36C102237212846984743
:101EE0000F2005F01BFD2846E36C0122382198479E
:101EF0000F20BDE8384005F011BDFFF78BF805460F
:101F0000FFF790FF014600289CD1D5B12023E8714E
:101F1000AB712846FFF7D4FC2146104B41F8143F23
:101F2000284626F065FEAB88B3FA83F3C3F11F039E
:101F30005A1C87D001229A4009490B6813430B6051
:101F400080E72946FFF7BCFC2146044B41F8143FCB
:101F5000284626F04DFE0122EEE700BFED070008FF
:101F60000004014038B5154C0546204626F03CFDDE
:101F7000012005F079FC2846FFF75EFF05F1180007
:101F800010226A21FFF738FF642005F0C7FC238880
:101F900023F040031B041B0C2380238823F0380309
:101FA0001B041B0C238023889BB243F04003238037
:101FB0000120BDE8384005F057BC00BF00300140AB
:101FC0002DE9F0410B4E346873691C400FD0DFF8E7
:101FD00028800127B4FA84F3C3F11F0307FA03F53D
:101FE00058F8230003689847AC437561F2D1BDE807
:101FF000F08100BF000401408C7D00202DE9F041FC
:102000000B4E346873691C400FD0DFF8288001271D
:10201000B4FA84F3C3F11F0307FA03F558F8230059
:1020200003689847AC437561F2D1BDE8F08100BF09
:10203000000401408C7D00202DE9F0410B4E3468F6
:1020400073691C400FD0DFF828800127B4FA84F3AD
:10205000C3F11F0307FA03F558F8230003689847F4
:10206000AC437561F2D1BDE8F08100BF00040140CE
:102070008C7D00202DE9F0410B4E346873691C40C3
:102080000FD0DFF828800127B4FA84F3C3F11F03CF
:1020900007FA03F558F8230003689847AC437561C5
:1020A000F2D1BDE8F08100BF000401408C7D00202A
:1020B0002DE9F0410B4E346873691C400FD0DFF8F6
:1020C00028800127B4FA84F3C3F11F0307FA03F54C
:1020D00058F8230003689847AC437561F2D1BDE816
:1020E000F08100BF000401408C7D00202DE9F0410B
:1020F0000B4E346873691C400FD0DFF8288001272D
:10210000B4FA84F3C3F11F0307FA03F558F8230068
:1021100003689847AC437561F2D1BDE8F08100BF18
:10212000000401408C7D00202DE9F0410B4E346805
:1021300073691C400FD0DFF828800127B4FA84F3BC
:10214000C3F11F0307FA03F558F823000368984703
:10215000AC437561F2D1BDE8F08100BF00040140DD
:102160008C7D0020084A094808B5936943F00103B3
:1021700093610021402231F0A4FA054B4FF0FF3269
:102180001A60C3F8032008BD001002408C7D0020B7
:10219000CC7D002010B404686469A4465DF8044B4B
:1021A000604700BF036810B504461B689847236862
:1021B00020469B689847237A0133237210BD00BFE5
:1021C00010B5036804469B689847FF230122E3711A
:1021D000A27110BD2DE9F0410501674C674B6259B2
:1021E00061199A4204EB050604BF01230B730746ED
:1021F000307A25F09DFF337A03F01F015B0901223D
:10220000022B02FA01F200F09080032B00F088808C
:10221000012B6ED0631901375879FEF7FBFEFFB230
:10222000804610B11223C77183716319D879FEF704
:10223000F1FE10B11323C771837163199879FEF70A
:10224000E9FE10B11423C771837166190E21727AE9
:102250004046FFF763F9F079FEF7DCFE727A0E2153
:10226000FFF75CF9B079FEF7D5FE727A0E21FFF721
:1022700055F93079002846D16359414A934264D0D8
:102280003E4A93426CD03F4A934253D02C44227B27
:1022900062B3002425469A8822F480521204120C5C
:1022A0009A80998889B241F4805199801A8802F401
:1022B000415242F4457222432A431A809A8822F4FA
:1022C00070621204120C42F4E0629A809A8B22F43B
:1022D00000621204120C07219A8319821A8892B2A2
:1022E00042F040021A8048B9BDE8F081012402257D
:1022F000D1E7254B996A0A439A628BE7FEF78AFE7B
:10230000BDE8F0419EE4FEF785FE10B11F23C771C2
:10231000837166190D21727AFFF700F93079ABE706
:10232000194B19690A431A6174E7174BD9680A43B4
:10233000DA606FE702F5EA32116941F40041116198
:10234000116921F400411161A0E702F56042D168F2
:1023500041F48051D160D16821F48051D16095E77A
:1023600002F5EC32116941F480411161116921F4E7
:10237000804111618AE700BFBC1A0020003800408C
:1023800000300140003C004000100240427A02B997
:10239000704710B504460368406804F10A01984785
:1023A0000023637210BD00BF437A5A1C0344D2B2AB
:1023B00042729972037A934200D802B9704710B5FD
:1023C00004460368406804F10A01984700236372D9
:1023D00010BD00BF30B40B4D002305F1280101E012
:1023E000272B0CD011F8132082424FEA430403F14B
:1023F0000103F5D12C4494F8290030BC704700202B
:1024000030BC7047A040030870B5448806460D46AE
:10241000C4F30B0422460021284631F052F93369F7
:10242000094A934209D3094A934206D222462846D2
:102430001946BDE870402EF077BE23B121462846EC
:10244000BDE87040184770BDDCA203088DA30308E7
:102450004388426813F4004F04D0C3F30B03C9B29E
:1024600001FB03221146CFE7064B07498B4202D3FB
:102470000023184670471A88C2F30B029042F8D026
:102480001433F3E7CC9E0308DCA20308024A136866
:1024900023EA000010607047DC380020F8B51A4DC0
:1024A0002B789F2B2ED16B78BE2B2BD10522174971
:1024B000A81C31F0AAF928BB072229464FF6FF7065
:1024C000FDF7B6FF124FEC1D22884AB1A618BE4296
:1024D00018D2052A16D92146FDF7AAFF3446F3E79C
:1024E00021460222FDF7A4FF0222A118FDF7A0FF5A
:1024F0000634084B641B1C8041F60F53C31A584224
:102500005841F8BD0020F8BD00F0030844670308F7
:1025100000000408503200202DE9F04F644BDFF832
:10252000A8A18FB0A3EB0A034FF003090093182270
:10253000002108A831F0C5F8009B09935D4BCDF848
:1025400020A01A69120604D55B4A5A6002F188324B
:102550005A6001228DF834203422DA60574B584CEF
:1025600018689A8806909B79ADF81C2006A9072266
:1025700008A88DF81E30FEF725FC072206A94FF6A5
:10258000FF70FDF755FF4FF0000B80464D4B9C420E
:1025900038D30EAC002524F82C5D0222214608A871
:1025A000FEF710FC022221464046FDF741FF40BAEB
:1025B000C043ADF81000022204A908A8FEF702FCEF
:1025C0000B9860B10AABC0F104022946184431F0FF
:1025D00078F80A9908A8FEF79BFB0B950C909DF8DC
:1025E00034300C9A23B133490B6943F080030B61FB
:1025F000B9F1010954D0002A99D1FFF74FFF002803
:1026000050D052E062888DF815B0C2F30B06B31DAE
:10261000ADF810302388C3F30B011B0B8DF8143079
:102620001304ADF8121017D4062204A908A8FEF767
:10263000C9FB062204A94046FDF7FAFE32460546CC
:10264000616808A8FEF7BEFB324661682846FDF7C0
:10265000EFFE8046143499E700273D460135EDB280
:10266000062204A908A88DF81550FEF7ABFB062238
:1026700004A94046FDF7DCFE6268019002EB070802
:102680004146324608A8FEF79DFB019B4146324673
:102690001846FDF7CDFE032D80463744DED1D9E73D
:1026A000002AAAD0052004F03DFC0FB0BDE8F08F51
:1026B000000004080020024023016745164103087A
:1026C000CC9E0308DCA2030800F003080378202B4B
:1026D000024600F10100F9D0092BF7D02D2B2CD0A8
:1026E0002B2B03BF5378B7EE000A0246B7EE000A61
:1026F000A3F13001C8B209289FED467A10D8F2EE56
:10270000046A07EE901AF8EEE77A12F8013FE7EE56
:10271000267AA3F13001C8B20928B0EE677AF0D961
:102720002E2B4CD003F0DF03452B0BD0F7EE007AB5
:1027300067EE276A20EE260A70475378BFEE000A3C
:102740000246D5E710B451782D2959D02B290ABF5C
:102750009178501C901C0024A1F13003092B53D810
:10276000002303EB830301EB430310F8011FA1F1E6
:102770003002092AA3F13003F3D9B3F59A7F28BFB9
:102780004FF49A73072B42D9DFED236A1A46F7EE0E
:10279000007A083A072A67EEA67AFAD803F0070308
:1027A0002BB1F2EE046A013B67EEA67AFBD124B3AB
:1027B000C7EE276A5DF8044B20EE260A704753786F
:1027C000A3F13001C8B2092802F10102AAD8F2EE41
:1027D000046AF0EE665A07EE901AF8EEE77A12F8FD
:1027E000013F87EEA66AA3F13001C8B2092866EE60
:1027F000A56A37EE067AEED994E767EE276AD9E73D
:10280000901C91780124A7E7F7EE007ACFE7F7EE66
:10281000007AC5E70000000020BCBE4CB5EEC00A3F
:10282000DFED317AF1EE10FACCBF30EE270A30EE50
:10283000670ADFED2E7A20EE270A30B5FDEEC07A6A
:1028400087B017EE904A054684EAE470002303A996
:10285000A0EBE47001930093029316F0D1FB002CDF
:10286000ACBF20232D2303A88DF800302DF05CF998
:10287000012803A924D002282DD0032805BF302326
:10288000684668468DF8013030F09AFF68462DF0B2
:102890004BF90338C4B222466946284630F0EEFFB1
:1028A00000232B5528462DF03FF92E22431C2A5495
:1028B0000DEB0401E81830F0A0FF284607B030BD4A
:1028C000302368468DF801308DF802308DF80330E2
:1028D00030F076FFDAE7302368468DF801308DF866
:1028E000023030F06DFFD1E76F12033A00007A44F6
:1028F0002DE9F041064615460846B6FBF2F43CB910
:1029000005FB1464124B1B5D00F8013BBDE8F08130
:10291000B4FBF2F767B90E4B05FB174705FB1464D0
:10292000DA5D00F8012B1B5D00F8013BBDE8F0818A
:10293000B7FBF2F8B8F1000F02D04046FFF7D8FF1E
:1029400005FB1878024B13F8082000F8012BE3E789
:102950004C6703080368591C1A46016012F8021BF1
:102960000260587841EA0020704700BF38B504463D
:10297000006815462EF0D8FB22682A44226038BD34
:10298000036810B40A0E5C1C04601A7003680A0C19
:102990005C1C04601A7003680A0A5C1C04601A70EC
:1029A00003685A1C026019705DF8044B704700BF41
:1029B000036810B40A0A5C1C04601A7003685A1C8D
:1029C000026019705DF8044B704700BF03685A1C21
:1029D000026010B4197003680A0A5C1C04601A7063
:1029E00003680A0C5C1C04601A700368090E5A1C08
:1029F000026019705DF8044B704700BF03685A1CF1
:102A0000026019700368090A5A1C02601970704745
:102A10002DE9F047002488B080460F461E46A146A7
:102A200005AD531C0393117839B3252933D1931C79
:102A3000CDF810900393507830284ED04FF0000A14
:102A4000A0F13003DBB2092B42D96C2819D06428DD
:102A500000F0938024D825281CD063D9582876D03C
:102A600063281BD131784046B847039A531C03931F
:102A70001178043601340029D7D1204608B0BDE8CA
:102A8000F087039B5A1C03921B78642B7CD02AD8B6
:102A9000252B54D1252140460134B847039AC0E77D
:102AA000732833D044D975284FD106F1040E30680D
:102AB0002B4600220A217646FDF73EFC049A00953B
:102AC000534639464046FDF775FC039A0444A8E78F
:102AD00004AA03A926F05CFAB7E7D31C0393907805
:102AE0004FF0010AACE7732B10D05BD9752B3AD0AD
:102AF000782B96D1A3F15802B2FA82F230685209CB
:102B00002B4610210436FDF717FCD7E73368049AEB
:102B10000093394600234046FDF74CFC043604443C
:102B2000039A7EE70028B9D1204608B0BDE8F087B7
:102B30006E28B3D1039A336804361C6071E72AD932
:102B4000582BD7D0632B8DD06BE77828A6D1A0F176
:102B50005802B2FA82F2306852092B461021FDF772
:102B6000EBFB0436AAE706F1040E30682B46002280
:102B70000A217646FDF7E0FBA0E7331D30682946C1
:102B80001E46FDF7ABFB99E7331D306829461E460C
:102B9000FDF7A4FB92E7002B7FF443AF204608B07B
:102BA000BDE8F0876E2BC6D03BE700BF0EB400B582
:102BB00084B005AB019053F8042B0649039301A898
:102BC000FFF726FF019B00221A7004B05DF804EBAA
:102BD00003B07047A90300080FB430B583B006AB4B
:102BE0000A490B4853F8042B096800680193FFF762
:102BF0000FFF084C05462068FEF7DEF90028FAD0E2
:102C0000284603B0BDE8304004B070476C33002064
:102C100070330020F4910020DFED2B7AB4EEE70A48
:102C2000F1EE10FA4ADDDFED296A9FED297A01E025
:102C3000B0EE670AB4EEC70AF1EE10FA70EE667AEB
:102C4000F6DC9FED247AF4EEC77AF1EE10FA38D56F
:102C5000DFED1E6A9FED207A01E0F0EE407AF4EE9F
:102C6000C77AF1EE10FA37EEA60AF6D4DFED1B7A3A
:102C7000B4EEE70AF1EE10FA14DDDFED137A37EE69
:102C8000C00A60EE006A9FED166A9FED167ADFEDCE
:102C9000167AA6EE867A20EE266AE6EE877AA6EE09
:102CA000270A7047DFED117AB4EEE70AF1EE10FA69
:102CB00044BFDFED087A37EEC00AE2E7F0EE407A73
:102CC000BFE7B0EE670AD1E7DB0F4940DB0FC94031
:102CD000E4CB1641DB0F49C0E4CB16C1DB0FC93F83
:102CE00092E741B99730083C15A82ABEDB0FC9BF4F
:102CF00041404A0011F0800F82F0D503D2B2DBB21E
:102D000008BF1346590013F0800F81F0D502C9B2F5
:102D1000D2B208BF0A46510012F0800F81F0D503ED
:102D2000C9B2DBB208BF0B46590013F0800F81F027
:102D3000D502C9B2D2B208BF0A46510012F0800FC4
:102D400081F0D503C9B2DBB208BF0B46590013F0BE
:102D5000800F81F0D502C9B2D2B208BF0A46510035
:102D600012F0800F81F0D503C9B2DBB208BF0B4669
:102D70005A0082F0D50013F0800FD2B2C0B208BF63
:102D80001046704780EAE073A3EBE0738B4205DBEB
:102D9000002801DD401A704702D1704700207047BB
:102DA0000844704709B909E0194690FBF1F301FBAB
:102DB00013030846002BF7D1084670470146FBE78E
:102DC000F0EEC07AB0EEE07AB4EEE77AF1EE10FA07
:102DD000B4BFB0EE676AB0EE476AB5EE406AF1EE96
:102DE00010FA46D0B4EEE77AF1EE10FA8CBFF0EEAE
:102DF000675AF0EE475AC5EE866A9FED1F3A9FED7F
:102E00001F6A9FED1F4A9FED1F5ADFED1F3ADFED4E
:102E10001F4ADFED1F5AA6EEC36AE6EEA34AA6EEEE
:102E2000864AB7EE006AA6EE845AA6EEA46AE6EEDB
:102E3000855AC5EE866AB4EEE77AF1EE10FA48BF1D
:102E4000DFED147AF5EEC00A48BF77EEE66AF1EEE0
:102E500010FA48BFDFED107AB5EEC00A48BF77EE32
:102E6000E66AF1EE10FA48BFF1EE666AB0EE660A65
:102E70007047DFED076ADEE739094E3DE3B59E3E58
:102E800088FA163E45FE7F3F99FB243F69A2163E15
:102E9000A7DFA834DB0FC93FDB0F4940DFED317AF4
:102EA00030EE277AFDEEC76A16EE903A2033402BBB
:102EB00002D99FED2D0A7047B4EEE70AF1EE10FA41
:102EC0004DDD9FED2A6ADFED2A6A01E0B0EE677AF8
:102ED000B4EEE67AF1EE10FA77EE467AF6DC9FED84
:102EE000257AF4EEC77AF1EE10FA35D5DFED1F6AD8
:102EF0009FED217A01E0F0EE407AF4EEC77AF1EE30
:102F000010FA37EEA60AF6D4DFED167AB4EEE70A29
:102F1000F1EE10FA1BDCDFED197AB4EEE70AF1EE00
:102F200010FA44BFDFED137A37EEC00A60EE006A94
:102F30009FED136A9FED137ADFED137AA6EE867A82
:102F400020EE266AE6EE877AA6EE270A7047DFEDC6
:102F50000F7A37EEC00AE9E7B0EE670AD4E7F0EE81
:102F6000477ABCE7DB0FC93F00000000DB0FC94018
:102F7000E4CB1641DB0F49C0E4CB16C1DB0FC9BF60
:102F800092E741B99730083C15A82ABEDB0F4940AB
:102F9000FDEEC07A17EE903A2033402B51D8DFED8A
:102FA0002D7AB4EEE70AF1EE10FA50DDDFED2A6A71
:102FB0009FED2A7A01E0B0EE670AB4EEC70AF1EE9F
:102FC00010FA70EE667AF6DC9FED257AF4EEC77A99
:102FD000F1EE10FA38D5DFED206A9FED227A01E09C
:102FE000F0EE407AF4EEC77AF1EE10FA37EEA60A68
:102FF000F6D4DFED1D7AB4EEE70AF1EE10FA1BDC31
:10300000DFED1A7AB4EEE70AF1EE10FA44BFDFED15
:10301000147A37EEC00A60EE006A9FED156A9FEDE4
:10302000157ADFED157AA6EE867A20EE266AE6EEB0
:10303000877AA6EE270A7047DFED067A37EEC00AD8
:10304000E9E79FED0E0A7047B0EE670AD1E7F0EEB0
:10305000407AB9E7DB0F4940DB0FC940E4CB1641AA
:10306000DB0F49C0E4CB16C1DB0FC93FDB0FC9BF83
:1030700092E741B99730083C15A82ABE000000002D
:1030800010B507EE901A2DED028BB8EE678ADFEDD2
:10309000207A28EE008A044628EE278AB0EE480AF5
:1030A0002EF050FAF0EE408AB0EE480A2EF0ACF95D
:1030B000F7EE007A9FED177AF0EE675AE8EE875A3E
:1030C0000023A361B0EE676AC7EEA56A6361A8EE4C
:1030D000C76ABDEC028B77EEC07AB6EE007AF8EEE6
:1030E000005A27EE877A20EE250A27EE267A26EE6A
:1030F000266A66EEA77A20EE260A84ED046AC4EDFD
:10310000017A84ED007A84ED027A84ED030A10BD21
:1031100027D4D236F304353F08B5FEF76DFE0A20FA
:1031200004F0A2FB012008BDF0B5574B574A97B0F9
:103130001968914200AF00F09C805549554A002320
:103140004FF47000C1F888003B607B60136843F463
:103150008033136003E03B68B3F5A04F09D01368D8
:1031600003F400337B603B6801333B607B68002BDA
:10317000F1D0484B1B6813F4003318BF01237B6068
:103180007B68012B4BD0424D424B434AEA60434A95
:10319000596A11605A6A424E42F080725A625A6904
:1031A00007F1580442F4FC0241F6FF715A6124F819
:1031B000501D032321464FF09040BB72FDF73AFCAF
:1031C0004FF6FF73214637483B81FDF733FC21461C
:1031D0003548FDF72FFC21463448FDF72BFC2146EE
:1031E0003348FDF727FC21463248FDF723FC2046F3
:1031F00023F078FDBB683049304AA1FB0313304906
:103200009B0CF02400204FF0070E5C370B605660DB
:1032100085F823409060C2F800E0BD46F0BD294A21
:103220001C4B122111605A685A605A685A605A68D9
:1032300042F480625A605A6822F47C125A605A68DA
:1032400042F4E8125A601A6842F080721A601A68F2
:103250009201FCD559680F4A21F003015960596861
:1032600041F002015960536803F00C03082BFAD1B6
:1032700089E700221A6062B6134B1B6883F3088843
:10328000124B1B689847FEE7FC9F0020EFBEADDEA7
:1032900000ED00E0001002400005FA05C8420020E1
:1032A0003F1901000004004800080048000C0048D5
:1032B000001000480014004883DE1B4310E000E0CB
:1032C000D84200200020024000D8FF1F04D8FF1F72
:1032D0000148FDF7E3BA00BFF82100200148FDF7DF
:1032E000DDBA00BFA42100200148FDF7D7BA00BF16
:1032F0005021002070B50F4C0F4DC0EBC00004EB07
:103300008004686926693043686182B09209667BEF
:10331000A1600025012101A863618DF804608DF88A
:1033200005208DF806508DF8071025F0DFF902B062
:1033300070BD00BF6C19002000100240074BC0EBAD
:10334000C00030B403EB8000054C056963692B4372
:1033500063610176427630BC704700BF6C19002073
:10336000001002400348D0F83C3113B100F59A70C8
:10337000184770476C1900200348D0F8203113B16A
:1033800000F58C70184770476C1900200348D0F87E
:1033900004310BB1FC301847704700BF6C19002096
:1033A0000348D0F8E8300BB1E0301847704700BF51
:1033B0006C1900200348D0F8CC300BB1C43018474A
:1033C000704700BF6C1900200348D0F8B0300BB133
:1033D000A8301847704700BF6C1900200348D0F888
:1033E00094300BB18C301847704700BF6C19002027
:1033F0000248836F0BB17030184770476C1900207A
:103400000248C36D0BB15430184770476C19002047
:103410000248036C0BB13830184770476C19002014
:103420000248436A0BB11C30184770476C190020E2
:103430000248836803B11847704700BF6C19002029
:103440001749184B184A194810B4D1F8884044F469
:103450007004C1F888401C6844F001041C605C687A
:1034600022405A601A6822F0847222F480321A6074
:103470001A6822F480221A605A6822F4FE025A6006
:10348000DA6A22F00F02DA621A6B002410404FF061
:10349000006218639C608A605DF8044B704700BF4F
:1034A00000ED00E0001002400CC07FF8CCFC00FFF3
:1034B0002DE9F047B0F908500D81EDB28AB006460B
:1034C00028460C46174602F0AFFB30B101231A46DE
:1034D000184662810AB0BDE8F087A5F10A03E72B20
:1034E00000F2EA80DFE813F04E06E800E800E800AA
:1034F000E800E800E800E800E800E800E800E8008C
:10350000E800E800E800E800E800E800E800E8007B
:10351000E800E800E800E8006006E800E800E800ED
:103520009206E800E800E8004E08E8007608E800A7
:10353000B508E800CE08E800DA08E8001F0AE8004D
:10354000450AE800E800E800DD03580AE800DF0863
:10355000E800E800E908E800F208E800E800E80010
:10356000D003E800E800E800E800A306E800000750
:10357000E80022075704E800E800E800E800E80057
:10358000E800E8006F04E800A304E800CD04E800C8
:10359000FC04E8005E05E800E800E800E8006E05CD
:1035A000AA05DD05E605FC050E06380684099D0919
:1035B000E800A409040AE800E800E8004A07200837
:1035C000E800F7072C08E800E800E8007D078E0710
:1035D000A707B807E800E800E800E403F5030804DB
:1035E000E800E800E800E800E800E800E800E8009B
:1035F000E800E800E800E800E800E800E800E8008B
:103600001904E800E800E800E800E800E800E80045
:10361000E800E800E800E800E800E8001309E80036
:10362000E800E800E800E800E800E800E800E8005A
:10363000E800E800E800E800E800E800E800E8004A
:10364000E800E800E800E800E800E800E800E8003A
:10365000E800E800E800E800E800E800E800E8002A
:10366000E800E800E800E800E800E800E800E8001A
:10367000E800E800E800E800E800E800E800E8000A
:10368000E800E800E800E800E800E800E800E800FA
:10369000E800E800E800E800E800E800E800E800EA
:1036A000E800E800E800E800E800E800E800E800DA
:1036B000E800E8004C095909F52D01F01887762D2E
:1036C000336859D07168A5F12102CF1A362A00F269
:1036D000F380DFE812F0AA00F100F100F100F10040
:1036E000F100F100F100CA00F100F100F100F10079
:1036F000F100F100F100F100F100F100F100F10042
:10370000F100F100F1003700F100F100F100F100EB
:10371000F100F100F100F100F100F100F100F10021
:10372000F100F100F100F100F100F100F100F10011
:10373000F100F100F100F100F1009400F1008200CD
:10374000F10049005A1C32601A780A2A0CD19A1CDE
:103750003260514A59781170D91C31609978517092
:10376000191D3160DB7893704FF0FF331A4618460D
:1037700062810AB0BDE8F0875A1C32601B78002BCA
:1037800001F01187102B07BF444A92E82200002560
:1037900029462268501C206013702046FFF716F956
:1037A00029462046FFF712F93D4B20461968FFF7DE
:1037B0000DF900212046FFF721F900212046FFF7EF
:1037C0001DF9216800204A1C0123226008701A4656
:1037D000184662810AB0BDE8F0875A1C32601D7835
:1037E000FF2D01F0A7873046FFF7B4F81C2DBBD89A
:1037F0002C4A4FF0FF3322F815001A4668E6062FD0
:10380000B2D1294A981D0133336013F8011C02F824
:10381000011B8342F7D1254B1B78002BA4D025F048
:103820004DFB4FF0FF331A4652E61A46591C3160E1
:103830001F4D12F8021B697032605A782A70DA1C28
:1038400032609B78AB703046FFF784F83368E880CD
:103850001A46591C316012F8021B297132605B78DC
:103860006B714FF0FF331A4632E65A1C32601B78F8
:103870000A2B01F0E386502B7FF476AF3046FFF73A
:1038800069F80C4D28803046FFF764F84FF0FF339D
:1038900068801A461CE600BF25370020BC2C00209B
:1038A000882B002000890020D07E0020A433002037
:1038B000F4760020643300200B3DEF2D3FF654AF2B
:1038C00001A252F825F000BF335300086937000801
:1038D0006937000869370008693700086937000848
:1038E0006937000869370008693700086937000838
:1038F0006937000869370008693700086937000828
:103900006937000869370008693700086937000817
:103910006937000869370008693700086937000807
:103920006937000869370008CF5200086937000876
:10393000B55200086937000861520008693700086D
:1039400069370008693700084F52000869370008D6
:10395000B351000869370008815100086937000831
:103960005B510008693700082754000869370008D0
:10397000D3530008693700088553000869370008E9
:10398000693700086937000869370008CD34000836
:10399000693700086953000869370008693700086B
:1039A0008F54000869370008395400086937000847
:1039B0006937000869370008693700086937000867
:1039C000693700086937000869370008A9540008FA
:1039D0006937000821500008693700086937000876
:1039E0002D51000869370008693700086937000859
:1039F0006937000869370008693700086937000827
:103A00006B50000869370008B14F0008693700089B
:103A1000694F000869370008A34E0008693700089D
:103A20007B4E0008693700086937000869370008CD
:103A300069370008693700086937000869370008E6
:103A400069370008693700086937000869370008D6
:103A500069370008693700086937000869370008C6
:103A600069370008693700086937000869370008B6
:103A700069370008693700086937000869370008A6
:103A80006937000869370008693700086937000896
:103A90006937000869370008693700086937000886
:103AA0006937000869370008693700086937000876
:103AB0006937000869370008693700086937000866
:103AC0006937000869370008693700086937000856
:103AD0006937000869370008693700086937000846
:103AE0006937000869370008693700086937000836
:103AF0006937000869370008693700086937000826
:103B00006937000869370008693700086937000815
:103B10006937000869370008693700086937000805
:103B200069370008693700086937000869370008F5
:103B300069370008693700086937000869370008E5
:103B400069370008693700086937000869370008D5
:103B500069370008693700086937000869370008C5
:103B600069370008693700086937000869370008B5
:103B700069370008693700086937000869370008A5
:103B80006937000869370008693700086937000895
:103B90006937000869370008693700086937000885
:103BA0006937000869370008693700086937000875
:103BB0006937000869370008693700081F4E000898
:103BC000C74D0008914D0008693700080F4D0008E7
:103BD000F54C0008D94C000869370008BF4C0008B4
:103BE0005D4C0008354C0008D94B00087B4B0008A1
:103BF000693700084D4B000869370008693700082D
:103C00002B4B0008FD4A0008E94A0008C14A000899
:103C10009F4A00087D4A0008374A00081F4A0008EA
:103C200069370008693700086937000869370008F4
:103C300069370008693700086937000869370008E4
:103C400069370008693700086937000869370008D4
:103C50006937000869370008054A00086937000815
:103C600069370008AB490008693700086937000860
:103C700069370008693700086937000869370008A4
:103C800069370008634A0008236800255A1C22602F
:103C9000294620461D70FEF799FE29462046FEF76C
:103CA00095FE00212046FEF791FE01231A460FE4FF
:103CB000B04D2046A98AFEF7A1FEE98A2046FEF70C
:103CC0009DFE298B2046FEF799FE01231A46FFF739
:103CD000FFBB2268A84B501C197820601170226825
:103CE0005978501C2060117022689978501C20600F
:103CF00011702168D87866E5A04BA149B3F900306E
:103D000081FB0321DB17C3EBA10189B22046FEF73B
:103D100075FE01231A46FFF7DBBB9A4B9A4DB3F8A9
:103D200050102046FEF76AFE984B1988204689B24B
:103D3000FEF764FE964B1A68C2F3C003C2F380011B
:103D40009B0043EA4103C2F340010B43C2F340111D
:103D500043EAC10102F0100211432046FEF74EFE75
:103D600002F0FEF901462046FEF730FE236829786E
:103D7000884A581C20601970118864292046A8BF01
:103D80006421FEF73BFE23680322591C21601A7050
:103D90002168687817E521687F4A0123481C206064
:103DA0000B7021689078CD18256008702168107814
:103DB000CD182560087021685078CA1822601A460C
:103DC0000870FFF785BB1CF085F8FF28054601F059
:103DD00096840AA9002601F8266D0DF101008DF8E0
:103DE000016015F0A7FA0AA800F8256D15F096FAFB
:103DF0000AA800F8246D15F085FA23685A1C226081
:103E00001D7023689DF80120591C21601A702368D9
:103E10009DF80220591C21601A7023689DF8032028
:103E2000591C21601A7021689DF80400CBE45B4F97
:103E3000FB78002B01F0568423680822591C21606E
:103E40001A7023680122991821601A702368494D5D
:103E5000591C2A7921601A702368AA78591C21609C
:103E60001A7029882046FEF7C9FD698A2046FEF7A8
:103E7000C5FD2368FA79591C21601A702168E87819
:103E8000A1E4464D23686A79454E591C21601A7099
:103E900033682046198CFEF7B1FD33682046598CF3
:103EA000FEF7ACFD69892046FEF7A8FDA9892046EA
:103EB000FEF7A4FD33682046998CFEF79FFD33681A
:103EC0002046D98CFEF79AFDE9892046FEF796FD3B
:103ED000298A2046FEF792FD01231A46FFF7F8BA19
:103EE00000212046FEF78AFD00212046FEF786FDD0
:103EF00000212046FEF782FD2268294D0023511C37
:103F00002160137022682968501C91F82F102060DE
:103F1000117022682968501C91F83A1020601170C5
:103F200022682968501C91F83B10206011702268AB
:103F3000511C216013702268511C2160137022688B
:103F4000511C216013702B682046D98FFEF756FD57
:103F50002B682046998FFEF751FD23682A68591C6B
:103F600092F8312021601A702B68216893F8320092
:103F700029E400BF643D0020A86E002088360020A0
:103F800067666666F81A0020BC870020507D002016
:103F9000EC760020523200204489002014380020A2
:103FA000707700202368B04AB049D078B04A5D1CD1
:103FB0002560187023680978581C206019702168E2
:103FC000D07800E4AB4B2046B3F85010FEF716FD56
:103FD000A94B1988204689B2FEF710FDA74B1A6835
:103FE000C2F3C003C2F380019B0043EA4103C2F362
:103FF00040010B43C2F3401143EAC10102F0100239
:1040000011432046FEF7FAFC02F0AAF801462046CA
:10401000FEF7DCFC23689A4A581C1178994A206004
:104020001970118864292046A8BF6421FEF7E6FCB8
:1040300000212046FEF7E2FCFFF748BA924EB38912
:10404000B3F5007F06F1380594BF012704274436F5
:1040500055F8041B91FBF7F1204689B2FEF7CEFC20
:10406000B542F5D1894D8A4F05F10C06B5EC010A30
:10407000D7ED077A80EE270A2DF018FA81B2204694
:10408000FEF7BCFCAE42F1D1824D05F10C0655F8AD
:10409000041B204689B2FEF7B1FCAE42F7D1FFF710
:1040A00015BA10227C492046FEF760FC01231A460F
:1040B000FFF70EBA794D7A4E05F1A00708E02046C9
:1040C0001435FEF79BFCAF4206F102063FF4FEA951
:1040D000297B0029F3D0308816F018FC0146EEE762
:1040E000704E3378002B3FF4F1A96F4F002537F85D
:1040F000021F2046FEF782FC337801359D42F6DB35
:10410000FFF7E4B9694B22681B786949694D501C77
:1041100003F002032060137023680A78591C2160A1
:104120001A7029682046FEF751FC69682046FEF7A0
:104130004DFC614B20461988FEF760FC5F4B204622
:104140001988FEF75BFC5E4B19882046FEF756FC8B
:1041500001231A46FFF7BCB95A4B20461988FEF7CF
:104160004DFC594B20461988FEF748FC574B2068F8
:104170001978421C01F00101012322601A460170E6
:10418000FFF7A6B952482BF0CFFC00287FF79EA975
:104190004F4B1D18226813F8011B501CAB422060C6
:1041A0001170F7D1FFF792B94A4D4B4F05F1500608
:1041B00000232878494A194607E00133212B02F1F0
:1041C0000C0201F0918112F80C1C8842F5D1DBB28F
:1041D00003EB4303226807EB8303511C93F8383049
:1041E0002160137023686A78591C21601A70236853
:1041F000AA78591C21601A702368EA780435591C82
:10420000AE4221601A70D3D1FFF760B9344D204619
:104210002988FEF7F3FBA9882046FEF7EFFB2989E2
:104220002046FEF7EBFB01231A46FFF751B923683E
:104230002C4D591C2A7821601A7023686A78591C01
:1042400021601A7069882046FEF7D8FB23682A7916
:10425000591C21601A70E9882046FEF7CFFB2168BF
:10426000287AFFF7B0BA00BF7036002080360020F1
:1042700088360020F81A0020507D0020EC760020BF
:10428000BC8700205232002018770020083400201C
:10429000A86D002014340020443400205C840020E9
:1042A00054340020446600204E890020F07600201F
:1042B000647700200477002078770020F2760020D1
:1042C000286F00207073002072730020327300206A
:1042D000C087002050420020204103085C410308B1
:1042E00078330020B4620020A94E3378002B3FF4CD
:1042F000EDA8A84D0027A846236815F81720591CDB
:1043000021601A7098F8011001EB810101EB810125
:1043100001F2EE2189B22046FEF770FB33780137B7
:104320009F4208F10208E7DBFFF7D0B823680125B8
:104330005A1922601D701DF0A3FB002841F0E7818F
:10434000954E964A03462168481C20600B702368EE
:1043500041F2B410591C105C216041F278111870C0
:1043600051582046890AFEF731FBF16B2046490877
:10437000FEF72CFB01231A46FFF7AAB8884D2B78CD
:10438000002B3FF4A3A8DFF83C8205F103090026C7
:104390003B27002319F8010F824A194606E0013332
:1043A000212B02F10C0216D012F80C1C8842F6D117
:1043B000DBB203EB430308EB8303D3F834A050468E
:1043C0002BF0B2FB514602462046FEF7CFFA236897
:1043D0005A1C22601F702B7801369E42D9DBFFF7F2
:1043E00075B8714D20462988FEF708FB698820467C
:1043F000FEF704FBA9882046FEF700FB01231A46BE
:10440000FFF766B82268694B67491878551C256024
:10441000107022685878551C2560107022689B78AF
:10442000501C20601370C9882046FEF7E7FA01236C
:104430001A46FFF74DB823685D4A5E4910785E4A18
:104440005D1C2560187023688978581C20601970DD
:1044500021689078FFF7B7B9DFF874E10027FEB262
:10446000714600232268501C206016702268501C80
:1044700020601370226811F8010F0133551C062BC0
:1044800025601070EED10137062F0EF1060EE6D131
:104490004A4900232268501C206017702268501C73
:1044A00020601370226811F8010F0133551C0B2B8B
:1044B00025601070EED12368414A581C0721206006
:1044C000197023680021581C20601970216892F827
:1044D000F000FFF778B9324D2B78002B3EF4F6AFA1
:1044E000DFF8E0E0EF1C0026002317F8010F2D4A4B
:1044F000194606E00133212B02F10C020ED012F80E
:104500000C1C8842F6D1DBB203EB430322680EEBAE
:104510008303511C93F83830216013702B780136D7
:104520009E42E1DBFEF7D2BF264952232268501C8F
:104530002060137011F8013F002BF7D1FEF7C6BFC2
:10454000214D05F16006A9882046FEF757FAE98853
:104550002046FEF753FA29892046FEF74FFA2368D2
:10456000AA7A591C21601A702368EA7A591C2160C2
:104570001A7055F80C1B2046FEF728FAB542E2D116
:10458000FEF7A4BF114B21681878FFF71CB900BFD4
:1045900044660020D8790020785D0020544B00202C
:1045A000802800205C4103089C62002068360020BF
:1045B0001438002070360020883600204B870020F9
:1045C000688600202041030820910020A0360020AA
:1045D00027870020B34D23682A7A591C21601A705E
:1045E000698B2046FEF70AFAE98A2046FEF706FAAA
:1045F000298B2046FEF702FA23686A7C591C216049
:104600001A70A98C2046FEF7F9F9E98C2046FEF7CE
:10461000F5F923682A7F591C21601A702368AA7F44
:10462000591C21601A70698C2046FEF7E7F923684F
:10463000EA7A591C21601A70E9682046FEF7C6F92B
:1046400023682A7C591C21601A702168E87FFFF7D3
:10465000BAB8954D05F14006B5F880102046FEF732
:10466000CDF9236895F88220591C21601A702368BF
:1046700095F883200435591CB54221601A70EBD19E
:10468000FEF724BF894D05F1800655F8041F20462A
:10469000FEF79CF9AE42F8D1FEF718BF814B2168B6
:1046A000D87CFFF790B82268814B501C9978206025
:1046B000117021685878FFF786B80822794920469A
:1046C000FEF754F901231A46FEF702BF2368794A20
:1046D000794D1178794A581C20601970116820466C
:1046E000FEF774F923686F4A591C127A21601A7018
:1046F00029882046FEF782F9A9882046FEF77EF930
:1047000029892046FEF77AF9002120468EE42368A5
:10471000DFF8D8C1591C9CF8002021601A709CF861
:104720000030002B3EF4D2AE654E664D66486749B8
:104730000022236816F8017F03F1010EC4F800E09F
:104740001F70236815F8017F03F1010EC4F800E023
:104750001F70236810F8017F03F1010EC4F800E018
:104760001F70236811F8017F03F1010EC4F800E007
:104770001F709CF8003001329A42DADBFEF7A6BEC9
:10478000534D2046A989FEF739F969892046FEF77D
:1047900035F901231A46FEF79BBE4E4B03F1700517
:1047A00022681978501C2060117022685978501CBA
:1047B0002060117022689978501C20601170226866
:1047C000D978501C2060117022681979501C206023
:1047D000117022685979501C2060117022689979F3
:1047E0000733501C9D4220601170D9D1FEF76EBE78
:1047F000394D20462988FEF701F969882046FEF7E1
:10480000FDF8B5F904303549DA1781FB0313C2EB23
:10481000A30399B22046FEF7F1F801231A46FEF7EA
:1048200057BE2F4B20461968FEF7D0F82D4B8BE46E
:104830002D4D23682A68591C127821601A702B6844
:1048400022689978531C2360002311702A6821681C
:104850001A4401335279481C032B20600A70F5D1A9
:1048600023682A68591C127A21601A7023682A6802
:10487000591CD27821601A7023682A68591C127951
:1048800021601A702B6820465989FEF7B7F8236813
:104890002A68591C527A21601A702B68216858784E
:1048A000FEF791BFA04200206886002064860020A9
:1048B00094360020A036002078330020DC38002019
:1048C000C36E0020D36E0020F36E0020E36E002044
:1048D00070360020C08A0020107700206766666668
:1048E000007700200C77002074770020C16E002034
:1048F000BE4D002223682968581C895C206019700D
:104900002B6821681344481C9B7A20600B702B682D
:104910002168134401321B7D481C0A2A20600B7059
:10492000E8D1FEF7D3BDB24B03F15A05226859799D
:10493000501C2060117022681978501C2060117082
:1049400022685978501C2060117022689978501C98
:10495000206011702268D978501C20601170226884
:1049600019790633501CAB4220601170DED1FEF77E
:10497000ADBDA04DA04E05F1300795F90210002302
:10498000F2568A4200F03C860C33482BF8D10835A9
:10499000AF42F2D1FEF79ABD216801200A182260C9
:1049A000034602460870FEF793BD5A1C32601A781F
:1049B0000F2A3EF6D9AE991C3160C2EBC2028F4974
:1049C00058788854D81C30600A4499785170191D61
:1049D0003160D9789170591D31601979D170991D64
:1049E000316059791171D91D31609979517103F193
:1049F00008013160DB79937128F0BEF801231A4673
:104A0000FEF766BD3046FDF7A5FF7D4DA881304617
:104A1000FDF7A0FF012368811A46FEF759BD304615
:104A2000FDF798FF774900EB8000420001230A80E0
:104A30001A46FEF74DBD19465A1C3260724A11F8EB
:104A4000020B1070316059785170D91C316099781F
:104A50009170191D3160DB78D37001231A46FEF77F
:104A600037BD6A4B1B785B073EF57EAE01F036FD25
:104A700002F00AFD01231A46FEF72ABD3046FDF773
:104A800069FF634DA8823046FDF764FFE882304637
:104A9000FDF760FF012328831A46FEF719BD1A4669
:104AA000591C316012F8020B3260DA1C59783260FE
:104AB0009A7826F079FC00287EF408ADFEF754BE03
:104AC0001A46591C3160534912F8020B08703260C3
:104AD0004B495A788A70DA1C32604A4A9B78937044
:104AE00001231A46FEF7F4BC404B4B4918684A2292
:104AF0002CF01AFB01231A46FEF7EABC19465A1C91
:104B00003260464A11F8020B1070316059785170CA
:104B1000D91C31609B7893703046FDF71BFF404AEB
:104B20000123D0801A46FEF7D3BC3046FDF712FFB2
:104B30003B4D28803046FDF70DFF68803046FDF77D
:104B400009FF0123A8801A46FEF7C2BCDFF8DC800B
:104B500098F80030002B3EF4B9AC324F00253046B7
:104B6000FDF7F8FE15F0FEFE98F8003027F8020B6E
:104B700001359D42F3DBFEF7A9BC0F2F7EF4F4ADA7
:104B80005A1C32601D78072D3EF6EEADDFF8A0808E
:104B900030460C27FDF7DEFE07FB05F708EB07059F
:104BA000A8803046FDF7D6FEE8803046FDF7D2FEFD
:104BB000336828811A46591C316012F8021BA97209
:104BC00032605B78EB7230462BF0D5FE012348F85B
:104BD00007001A46FEF77CBC3046FDF7BBFE124AC2
:104BE000012310801A46FEF773BC00BF70770020C7
:104BF000A4600020B4810020F0410020C08A002081
:104C00007036002088360020A86E00206A7C0020C4
:104C1000643D002014380020485B030868360020FB
:104C20009C620020C06100203C7400205974002068
:104C3000209100205A1C32601878060600F1E685A3
:104C4000B54B1B785D073EF541AC032828BF00201B
:104C500001F028FC01231A46FEF73ABC5A1C3260C8
:104C6000304693F800902BF086FE804630462BF0BD
:104C700082FE074630462BF07EFE05463046FDF7A5
:104C800069FE3046FDF766FE336801333360B9F1E3
:104C9000000F00F0A685B9F1100F7EF417AC9F4B02
:104CA000C3F800805F600DB19D4B1D609D499E4B18
:104CB0000222081F1A701BF043F8FEF707BC964B40
:104CC0001B7858073EF502AC01F0F2FC02F0DCFB69
:104CD00001231A46FEF7FCBB8F4B1B785A073EF5A3
:104CE000F5AB92490A78012342F004020A701A4691
:104CF000FEF7EEBB884B1B7859073EF5E7AB8C4AB5
:104D00004FF4C871012311801A46FEF7E1BB092F49
:104D10007EF62AADDFF84C821A46591CD8F80050AE
:104D2000316012F8021B297032605A78AA70DA1CBE
:104D300032609A78642A03F10401A8BF64226A7180
:104D40003160DA78642A03F10501A8BF6422AA71F0
:104D500031601A79EA719A1D32605A79642A28BF43
:104D60006422D91D2A7231609A79EA7003F108022F
:104D70003260DB792B713046FDF7ECFD0A2F68813C
:104D800040F04F8510F03EF901231A46FEF7A0BB14
:104D9000684A1068DA1C411E2133951E356012F8EE
:104DA000035C01F8015F551E356012F8025C8D72DC
:104DB000326012F8015C0D7503329342EDD128F098
:104DC000FFFBFEF783BB5A1C32601A785749002A52
:104DD00000F0CD840A7842F00202981C0A70564A0C
:104DE00030605B78137030462BF0C5FD534D286062
:104DF00030462BF0C0FD68603046FDF7ABFD504BF0
:104E000018803046FDF7A6FD4E494F4A0B781080BA
:104E100043F0020201230A701A46FEF759BBC7F39A
:104E20004707122F3EF6A0ACBFB10AAB0DF1020846
:104E300003EB47094546A9F126093046FDF78AFDEF
:104E400025F8020F4D45F8D1404B38F8022F23F8D2
:104E5000022F4545F9D1112F09D83D4A7B00023B6D
:104E600013440021223223F8021F9342FBD1394917
:104E7000012213460A70FEF72BBB1A46591C3160FB
:104E8000354912F8020BC870326034495A780A70FA
:104E9000DA1C3260324A9B78D37001231A46FEF73F
:104EA00017BB3046FDF756FD3046FDF753FD304643
:104EB000FDF750FD33681F4D9A1CD5F80080326015
:104EC0005A7888F82F20DA1C32609A7888F83A20CD
:104ED0001A1D3260DA7888F83B2007333360304699
:104EE000FDF738FDA8F83E003046D5F80080FDF704
:104EF00031FD112FA8F83C000CD933682968581CE3
:104F00001A46306012F8020B81F8310032605B788B
:104F100081F83230286852E76A7C0020BC2C0020DF
:104F2000882B0020C02C002034730020F076002055
:104F3000A6330020707700206477002004770020DB
:104F40007877002032730020F2760020FE77002070
:104F50000078002024780020703600208036002061
:104F600088360020747700205A1C3260C54DDFF867
:104F700018831B78D5F8009088F805303046FDF787
:104F8000E9FCA9F820003046D5F80090FDF7E2FCD6
:104F9000052FA9F8220000F2EF8301F0A9FA18F01A
:104FA00093FC28682BF004FD01231A46FEF790BA03
:104FB0001A46591C3160B44F12F8021BB9703260A6
:104FC000B2495A780A70DA1C3260B14D9A782A7167
:104FD0001A1D3260DB78082BA8BF08233046AB705F
:104FE000FDF7B8FC336872682880D11A012905DD05
:104FF0003046FDF7AFFC3368726868829A4240F031
:10500000E88301F075FA336872689A423EF45EAA4A
:105010005A1C32601B78EB7001231A46FEF758BA0F
:105020005A1C32601F78112F3EF69EAB9A1C3260DC
:10503000984D5B7805F817303046FDF78BFC40F64D
:10504000CA039842A8BF184640F2EE23984205EBE7
:105050004705B8BF18460123A0F2EE211A461920D1
:1050600091FBF0F16970FEF733BA3046FDF772FC40
:1050700005461AF02FFFFF283EF428AA0AA90023AC
:1050800001F8263DEF080DF101008DF801300137E0
:1050900014F050F99DF80130FFB205F00705BB424E
:1050A00005F1010503D19DF80230AB4203D029463A
:1050B00038461AF0FBFE33687268D21A012A7EF76E
:1050C00005AA5A1C0AA8326000221D7800F8252D76
:1050D00014F024F99DF80330AB420AD06E4B1B68E4
:1050E0003BB19A79AA4204D31B681B690BB12846CD
:1050F000984733680AA85A1C326000221D7800F8CD
:10510000242D14F0FFF89DF80430AB423EF4DEA9E4
:10511000614B1B68002B3EF4D9A91B685B69002B0F
:105120003EF4D4A928469847FEF7D0B95B4A1278D6
:10513000012A3EF6CBA919465A1C3260584A11F88A
:10514000020B9070316059781170D91C31609B78D6
:10515000537001231A46FEF7BBB95A1C32601D7802
:105160001F2D3EF601AB052F7EF4FEAA30462BF034
:1051700002FC4C4B43F8250019F044FFFEF7A6B99A
:10518000484D05F140073046FDF7E4FB3368A5F8CC
:105190008000591C1A46316012F8021B85F88210F3
:1051A00032605B7885F883300435AF42EBD1FEF78F
:1051B0008DB95A1C32603C4D1B782B723046FDF77E
:1051C000C9FB68833046FDF7C5FBE8823046FDF732
:1051D000C1FB336828835A1C32601B786B74082F1C
:1051E0007EF674A93046FDF7B5FBA8843046FDF77E
:1051F000B1FB0C2FE8847EF669A933681A46591C66
:10520000316012F8021B297732605B78AB77304649
:10521000FDF7A0FB102F68847EF658A933685A1C4E
:1052200032601B78EB7230462BF0A5FB3368E860E8
:105230005A1C32601A782A74162F7EF647A99A1CD7
:1052400032605B78EB7701231A46FEF741B95A1CAE
:105250003260164A1B78137001231A46FEF738B9DC
:105260003046FDF777FB124D28603046FDF772FBA4
:1052700068603046FDF76EFB0123A8601A46FEF712
:1052800027B900BF70770020143800206436002052
:10529000643D0020D87900204C4B0020E0380020ED
:1052A0004489002068860020A0420020A03600200B
:1052B00078330020BE4D00232B6030462BF05BFB83
:1052C0002A68012302432A601A46FEF701B95A1CD4
:1052D0003260187813283EF647AA9A1C32605D782F
:1052E000B44A002105E00131212902F10C023EF40B
:1052F0003BAA177AAF42F6D1AF4DB04A0C2707FB55
:105300000151DD1C91F8301002F82010356002EBDD
:10531000800299785170191D3160D8789070581DAD
:105320003060A7491B790868D37013F01DFAFEF7A7
:10533000CDB8A449102F4FF000023B4628BF1023E0
:105340000A604A608A60CA600A74002B3EF4BEA8F4
:10535000326813440132326012F8010C01F8010B7B
:105360009342F7D1FEF7B2B81A46591C31609649FC
:1053700012F8020B887032605B784B7001231A467A
:10538000FEF7A6B80722B7FBF2F2C2EBC201791A08
:105390007EF4EAA9D2B202F1FF385FFA88F8002A57
:1053A0003EF494A8DFF8249208F101080F465A1C35
:1053B000326093F90010854B002593F902208A4250
:1053C00000F06B810135062D03F10803F5D1FEF7DE
:1053D000CBB95A1C32601A780E2A3EF6C5A9991C20
:1053E00031605D78032D3EF6BFA97948062101FBA7
:1053F00002F14218DF1C557137609D784554191D24
:105400003160D9785170591D316019799170991DA9
:1054100031605979D170D91D31609B7913710123A5
:105420001A46FEF755B85A1C32606A4A1B78D37484
:1054300001231A46FEF74CB85A1C3260664A1B78A4
:105440005B4F137000233B6030462BF094FA3268B8
:105450003B686049614D0343501C3B6030601378EA
:105460000B723046FDF776FA28603046FDF772FA87
:1054700068603046FDF76EFAA8603046FDF76AFABC
:105480003046FDF767FA01231A46FEF721B8544A61
:1054900003F108010133336013F8010C02F8010F26
:1054A0009942F7D1FEF712B81A46591C31604D4D9A
:1054B00012F8021B297032605B786B703046FDF782
:1054C00049FA336868805A1C32601B782B71304669
:1054D000FDF740FA3368E8805A1C32601B782B7263
:1054E00001231A46FDF7F4BF00231B7AFFDE336861
:1054F00072689A4240F0A8803B4BFF2283F8242038
:105500004FF00009394D0DF047F849463022384830
:1055100085F800902EF0D5F88DF804909DF80430B1
:105520000B2B00F20581DFF8D480314E4A469DF8FE
:10553000043003EB830308EB83031B7BE3B19DF88B
:10554000043003EB830308EB83031B69A3B19DF8CD
:10555000043003EB830308EB83032021186946F82A
:105560002200FCF7ADF92B7856F82300FCF76AFB14
:105570002A780132D2B22A709DF804300133DBB2AE
:105580008DF804309DF804300B2BD0D92368591CBA
:1055900021601A70002F3DF499AF164B3B60012338
:1055A0001A46FDF795BF144A92E82200FEF7F1B8BB
:1055B000DC380020504103082041030850420020FD
:1055C00070770020C087002094360020B48100202E
:1055D000A4600020A0420020A036002078330020E4
:1055E0009F420020B462002080280020BF8A002053
:1055F000FC78002021C40208287300205C8400206D
:1056000023685A1C2260197029882046FDF7F6F994
:105610002368EA78591C21601A7023682A79591C7A
:1056200021601A702368AA79591C21601A702368B6
:105630006A79591C21601A70FFF7A9B93046FDF745
:1056400089F9804DFEF71EB95A1C194632607E4812
:1056500011F8022B80F8242031605B7880F8253027
:10566000042A03D9FF2A7EF4ACA849E777490978D0
:10567000994205D8022A7EF4A4A8FF2B7EF4A1A8A3
:1056800022680123D11821601370002F3DF41EAF52
:105690006F4A3A601A46FDF71BBF09EBC50A304650
:1056A0008AF80210FDF756F9326829F835001346DA
:1056B000511C316013F8021B8AF8031033605378D1
:1056C0008AF80430D31C336093788AF80630131DAF
:1056D00033600137D2788AF80520B8457FF467AE89
:1056E000FDF7F4BE2368B9785A4A581C2060197037
:1056F00023681278591C21601A70FEF7A7BB216835
:105700000123CA1822601A460870FDF7E1BE524E06
:10571000524A96F8243013B92B46FEF714BE51783E
:10572000022950D003290CBF04232B46FEF70BBEE1
:105730004A462BE7DA1C3260494D9A7885F84220B8
:105740001A1D3260DB7885F83A303046FDF702F9F1
:10575000A8873046FDF7FEF8E8873046FDF7FAF8EF
:105760004FF0FF33A5F840001A46FDF7B1BE0A78A6
:1057700002F0FD02FFF731BB3046FDF7EBF8A8F869
:105780000A003046FDF7E6F8A8F80C003046D5F8D8
:105790000090FDF7DFF8A9F824003046D5F8009016
:1057A000FDF7D8F80D2FA9F826007FF6F6AB3046A6
:1057B000FDF7D0F8A8F80E003046FDF7CBF8A8F8B2
:1057C0001000FFF7EABB042B34BF02230323FEF7CC
:1057D000BABD5A1C32601B78003318BF0123FB711D
:1057E0000FE4204B1020C3F800805F600AF078F9C6
:1057F0001D4A137843F001031370002D3DF466AE8B
:105800001A4A012315601A46FDF762BE00F07F00B8
:10581000032828BF00200DF0F3F901231A46FDF7F5
:1058200057BE3368D8F80020591C3160197851727E
:105830000B2F3FF4A7AA991C31605B785370FFF7D8
:10584000A1BA00BF603600208028002059740020D3
:10585000695B000864360020785D0020544B00200E
:105860000089002028730020F0760020882B00207B
:1058700038B50B4C23688BB15A68821A002A05464A
:1058800004DA0CE05A68AA1A002A07DB9A68226038
:1058900018461A6890472368002BF3D138BD38BDED
:1058A0006C66002000232822027043708370C3704E
:1058B000704700BF00F10B022DE9F04F431E144664
:1058C000002102F8011F03F8011FA342F9D1394B4F
:1058D0004FF0200A591D4FF021094FF016084FF0E4
:1058E000170C4FF02B0E2A271F261E251A248B4239
:1058F0004ED013F9012F1F2AF9D80FF2080B5BF8CD
:1059000022F000BFA35900089D59000895590008CE
:10591000EF580008EF580008EF580008EF5800084B
:10592000EF580008EF580008EF580008EF5800083B
:10593000EF580008EF580008EF580008EF5800082B
:10594000EF580008EF580008EF580008EF5800081B
:10595000EF580008EF580008EF580008EF5800080B
:10596000EF580008EF580008EF580008EF580008FB
:10597000EF580008EF580008EF580008AB5900082E
:10598000855900088B4280F817A080F80B90B0D1A1
:10599000BDE8F08F80F80EE08770A8E74673457089
:1059A000A5E7192204730270A1E780F8168080F839
:1059B0000AC09CE7405B03080B4B002210B4027244
:1059C00003F1DC04012102E0072A09DC9979890747
:1059D00002D51979815401329C4203F11403F3D1A9
:1059E0005DF8044B704700BF706303081F2303700A
:1059F000704700BF012310B41521142422224470E3
:105A00004171C2700370037183705DF8044B70477D
:105A100010B40268047B11680223A340194209D024
:105A20000649406800240C7001684FF6FE7421405E
:105A3000016053605DF8044B704700BFD67E0020C4
:105A4000436A826970B4D154436A0469426B01337A
:105A5000A34228BF00234362DAB1116811F00101AB
:105A600001D070BC7047856A86699D422E44D6601D
:105A70000BD3641B546081621368002143F001035F
:105A800080F8441070BC136070475D1B55608362E2
:105A9000F2E7026D136843F080031360E1E700BF93
:105AA000026B10B462B1036CC2684469D11A013B45
:105AB000615C5DF8044B08BF13460364C8B27047CD
:105AC000016A4369C4685B5C0131A14228BF114689
:105AD00001625DF8044BD8B2704700BF436B13B14D
